:100000000C9490010C94D7010C94D7010C94D70157
:100010000C94D7010C94D7010C94D7010C94D70100
:100020000C94D7010C94D7010C94D7010C94D11BDC
:100030000C94811C0C9407130C94D7010C94D701D9
:100040000C94D7010C94D7010C94D7010C9468132D
:100050000C94D7010C94D7010C94D7010C94D701C0
:100060000C94D7010C94D7010C94D7010C94D701B0
:100070000C94D7011E001F00200021002200230045
:10008000240027000100010001000100010001001F
:100090000100010001000100010001000100010058
:1000A0000100010001000100010001000100010048
:1000B0000100010001000100010001000100010038
:1000C0000100010001000100010001000100010028
:1000D0000100010001000100010001000100010018
:1000E0000100010001000100010001000100010008
:1000F00001000100010001000100010001000100F8
:1001000001000100010001000100010001000100E7
:1001100001000100010001000100010001000100D7
:1001200001000100010001000100010001000100C7
:1001300001000100010001000100010001000100B7
:1001400001000100010001000100010001000100A7
:100150000100010001000100010001000100010097
:100160000100010001000100010001000100010087
:100170000100010012036B006500790062006F004E
:100180006100720064000000160371006D006B00D6
:100190006200750069006C00640065007200000078
:1001A0000403090409026D00040100A0FA09040017
:1001B0000001030101000921110100012240000793
:1001C00005810308000A0904010001030102000976
:1001D0002111010001224D000705820308000A09D0
:1001E0000402000103000000092111010001223670
:1001F000000705830308000A090403000103000047
:1002000000092111010001223900070584032000A3
:10021000011201100100000008EDFE606001000104
:1002200002000105010906A101050719E029E715EA
:100230000025019508750181020508190129059518
:1002400005750191029501750391010507190029B2
:10025000F71500250195F875018102C00501098097
:10026000A10185021601002603001A81002A8300DD
:10027000751095018100C0050C0901A101850316C7
:100280000100269C021A01002A9C0275109501812A
:1002900000C005010902A1010901A1000509190118
:1002A0002905150025019505750181029501750344
:1002B00081010501093009311581257F95027508F5
:1002C000810609381581257F950175088106050C81
:1002D0000A38021581257F950175088106C0C00581
:1002E000010906A101050719E029E7150025019577
:1002F0000875018102950175088101050819012918
:100300000595057501910295017503910105071980
:100310000029FF150026FF00950675088100C00022
:1003200011241FBECFEFD4E0DEBFCDBF04B603FE65
:1003300027C08091FB019091FC01A091FD01B0913B
:10034000FE018730904BA740B04BD1F41092FB01D7
:100350001092FC011092FD011092FE0114BE84B7B0
:10036000877F84BF0FB6F894A8958091600088615C
:1003700080936000109260000FBEE0E0F8E3099502
:1003800011E0A0E0B1E0EEE0F0E402C005900D92D3
:10039000AE32B107D9F721E0AEE2B1E001C01D9263
:1003A000AB3FB207E1F70E9441190C94D91F0C949E
:1003B000000090E080E008950895089581E0089598
:1003C000089581E008950C94DE010E94480B2FEF00
:1003D00084E39CE0215080409040E1F700C00000A1
:1003E0000C948B13EF92FF920F931F93CF93DF9395
:1003F0008C01FC01E080F18080915001811140C0AE
:1004000082818823C1F1C7010E94DC10C82F682FA8
:10041000C7010E948410B7018C2F0E942A03EC01AF
:10042000B8010E94E301882309F44BC0B801CE0152
:100430000E943805882309F444C0C531F0E7DF077E
:1004400020F5C23080E7D80708F04DC0C115E0E7BD
:10045000DE0791F1C130D047E1F181E080933001B6
:1004600080933101C801DF91CF911F910F91FF90CF
:10047000EF900C94E101C7010E94B310C82FCBCFBD
:10048000C7010E94DC10B701C8CFCC3380E7D80782
:1004900009F49BC0CD33D04701F7F801828188234E
:1004A00009F4BAC0109231010E94371390932F01C2
:1004B00080932E0180E296C0F801828181110E9412
:1004C000E50180E0DF91CF911F910F91FF90EF90B8
:1004D0000895F80182818823A1F38091BB01816096
:1004E0008093BB01EECFF8018281882309F4BACF53
:1004F0000E949712811102C00E947D120E94B412C4
:1005000090E09093ED018093EC01FE01E350F04701
:100510008091EC018160E231F10538F4E552F04E52
:100520000C94891F8091EC0182608093EC01809192
:10053000EC010E94B8120E94480BC3CF8091EC01DD
:100540008460F3CF8091EC018860EFCF8091EC0163
:100550008061EBCF8091EC018062E7CF8091EC016C
:100560008064E3CF8091EC018068DFCF8091EC0163
:100570008C60DBCF8091EC018E7FD7CF8091EC0136
:100580008D7FD3CF8091EC018B7FCFCF8091EC0119
:10059000877FCBCF8091EC018F7EC7CF8091EC011C
:1005A0008F7DC3CF8091EC018F7BBFCF8091EC0119
:1005B0008F77BBCF8091EC01837FB7CF9091EC0117
:1005C000892F97FB87F98058B0CFF8018281882363
:1005D00061F0109230010E94371390932F018093A5
:1005E0002E0182E00E94AD086CCF80913001811114
:1005F0000FC080912E0190912F010E944313883CDF
:10060000910530F486E20E94820786E20E945E082D
:1006100082E00E94B40855CF8091310181110FC052
:1006200080912E0190912F010E944313883C9105E7
:1006300030F487E20E94820787E20E945E0880E22F
:10064000E8CF0C9487050C9489050C94E0010C9478
:1006500025030895E82FF0E0EE0FFF1FE70FF11DCF
:10066000EE0FFF1FEE0FFF1FE60FF11DEE0FFF1F36
:10067000EC58FF4F859194910895FC01EE0FFF1FF8
:10068000EC58FE4F8591949108950E942A030E9490
:10069000BC049C018115904408F097C0211580E3AB
:1006A000380708F0FFC0203E310508F074C0203C38
:1006B000310508F0EAC0283A310588F4253A3105B9
:1006C00008F0E7C02130310509F477C0C90104976B
:1006D000813A910508F471C030E020E06EC0C90194
:1006E000885A91094597C0F7283A310509F405C1A0
:1006F000293A310509F404C12A3A310509F403C144
:100700002B3A310509F402C12C3A310509F401C133
:100710002B3B310509F400C12C3B310509F4FFC026
:100720002D3A310509F4FEC0203B310509F4FDC026
:100730002E3A310509F4FCC02F3A310509F4FBC00B
:10074000213B310509F4FAC0223B310509F4F9C017
:10075000233B310509F4F8C0243B310509F4F7C007
:10076000253B310509F4F6C0263B310509F4F5C0F7
:10077000273B310509F4F4C0283B310509F4F3C0E7
:10078000293B310509F4F2C02A3B310509F4F1C0D7
:1007900020E034E412C0211540E2340780F42F3FFA
:1007A000310509F050F4283E310538F0C901805F69
:1007B00091093065409708F08FCFC9010895C901AC
:1007C0009F700E943D039C01F8CF211584E53807F6
:1007D00008F045C0211543E5340708F06EC0211527
:1007E00082E5380748F5211541E5340708F060C077
:1007F000211580E5380708F458C0C90174E09695C2
:1008000087957A95E1F78370422F46954695437018
:1008100050E0E5E0440F551FEA95E1F7582B822F91
:10082000837021E030E002C0220F331F8A95E2F787
:10083000242B352B3C68C1CFC9018370992741E037
:1008400050E002C0440F551F8A95E2F72695269581
:1008500030E065E0220F331F6A95E1F7E9CF2115FB
:1008600046E5340748F4922F882721153545D8F5F9
:100870009C01246F306AA1CFC90190563F70811549
:10088000904108F029CF306298CFC901805C91096E
:1008900098CF253A310559F1263A310559F522E824
:1008A00030E48BCF3327306C88CF3F70306A85CFF0
:1008B000322F2227216F306A80CFC9018370992798
:1008C00041E050E002C0440F551F8A95E2F726959B
:1008D000269530E085E0220F331F8A95E1F7242B1F
:1008E000352B3A686ACF88279F719C01CCCF21E8CD
:1008F00030E463CF23E830E460CF22EE34E45DCF10
:1009000029EE34E45ACF2AEE34E457CF25EB34E411
:1009100054CF26EB34E451CF23EB34E44ECF24EB19
:1009200034E44BCF27EB34E448CF2CEC34E445CF10
:100930002DEC34E442CF23E835E43FCF2AE835E418
:100940003CCF22E935E439CF24E935E436CF21E242
:1009500036E433CF23E236E430CF24E236E42DCF41
:1009600025E236E42ACF26E236E427CF27E236E432
:1009700024CF2AE236E421CF803E910581F1C8F4EC
:100980008133910509F462C048F48932910509F474
:1009900056C08A32910509F460C0089589339105E3
:1009A000B9F082389105A1F08533910509F440C072
:1009B0000895863E910561F138F4823E9105B1F0CB
:1009C000833E9105E1F00895873E910551F1089528
:1009D0002091EC012370D9F080EE90E008952091F1
:1009E000EC0120FF14C089E390E008952091EC0110
:1009F00022FF0DC024FD09C083EE90E008952091F0
:100A0000EC0122FD31C024FF02C090E080E0089597
:100A10002091EC0123FFFBCF24FDF7CF87EE90E080
:100A200008952091EC0123FFEECF86EE90E008952B
:100A30002091EC0125FFEBCF89E290E00895209111
:100A4000EC0125FFE4CF85E390E008952091EC01CF
:100A500026FFDDCF8AE290E008952091EC0126FF89
:100A6000D6CF81E390E0089582EE90E00895089556
:100A70000F931F93CF938C01FB018281811106C0DC
:100A8000C1E08C2FCF911F910F910895C0913F012C
:100A9000C11125C00531104799F70E94370581E043
:100AA00080933F010E94371390933E0180933D0154
:100AB00010923201109234011092330110923601DB
:100AC00010923501109238011092370110923A01BC
:100AD0001092390110923C0110923B01D2CF8091CB
:100AE0003D0190913E010E944313883C910540F6E0
:100AF00080913201E82FF0E0EE0FFF1FED5CFE4F1A
:100B0000118300838F5F80933201C0E0BACF0C94D1
:100B1000DC010C94DD01CF93DF932198299A53983F
:100B20005B9AA3E1B1E047E151E0C1E0D0E08D91F3
:100B3000E82FE295EF70F0E061A18F709E0101C097
:100B4000220F8A95EAF7922F9095962391A382A17E
:100B5000822B82A34A175B0751F710924201109231
:100B600040011092430110924101DF91CF910C940A
:100B700021036F927F928F929F92AF92BF92CF92FA
:100B8000DF92EF92FF920F931F93CF93DF9330E4A6
:100B9000632E31E0732E47E1E42E41E0F42E01E0B4
:100BA00010E0DD24D394E301C9903E01DE011E92E2
:100BB000F70181917F01E82FE295EF70F0E091A1BC
:100BC0008F70A80101C0440F8A95EAF7892F842B02
:100BD00081A382A1842E8094882182A380EA8A95B1
:100BE000F1F763E171E090E080E0EB013991BE0143
:100BF000A32EA2942FE0A222B12CE50128A19C9063
:100C00003F70580101C0AA0C3A95EAF7A22220E0F1
:100C100031F4202F082E01C0220F0A94EAF7292967
:100C20002C9301968430910501F781A1882181A33D
:100C300082A1482B42A38C91C81641F0D092440166
:100C40000E9437139093460180934501D2E46D16BC
:100C5000D1E07D0609F0A7CF80914401882391F06F
:100C600080914501909146010E944313069750F0F0
:100C70008091400180934201809141018093430122
:100C8000109244010E94230381E0DF91CF911F91D4
:100C90000F91FF90EF90DF90CF90BF90AF909F901B
:100CA0008F907F906F900895E82FF0E0EE5BFE4FFD
:100CB00080810895089590934C0180934B0108958D
:100CC000E0914B01F0914C01309721F00190F081BF
:100CD000E02D099480E00895E0914B01F0914C01E2
:100CE000309721F00280F381E02D09940895E0917E
:100CF0004B01F0914C01309721F00480F581E02DFB
:100D0000099408952091490130914A012817390723
:100D100071F090934A0180934901E0914B01F09169
:100D20004C01309721F00680F781E02D0994089559
:100D300020914701309148012817390771F09093AD
:100D4000480180934701E0914B01F0914C013097AD
:100D500021F00084F185E02D0994089508950C9404
:100D6000AE060E942E130E948B050C94F013BF92C6
:100D7000CF92DF92EF92FF920F931F93CF93DF9367
:100D800000D000D00F92CDB7DEB70E94B9058EE437
:100D9000C82E81E0D82E10E000E0E02E802F0E94C7
:100DA0005406B82EF601F1906F01F81609F45EC0F2
:100DB0008091BB0181FD0E945A0630E020E0FB24B7
:100DC0004F2D50E0922FBA01022E02C07595679503
:100DD0000A94E2F760FF44C02983EA8221E030E010
:100DE000790102C0EE0CFF1C9A95E2F72B2D30E042
:100DF0002E213F2181E0232B09F480E08B830E9488
:100E000037138160782F9D838C8349815A816B8150
:100E10008D810E945907F801E25BFE4F80818E258B
:100E200080830E94A5160E94600690914D0189174B
:100E300089F10E94600680934D010F900F900F90F2
:100E40000F900F90DF91CF911F910F91FF90EF9036
:100E5000DF90CF90BF900C94270301E010E09DCF6E
:100E60002F5F3F4F2430310509F0ACCF0130110521
:100E7000A1F78FEF89838A831B820E9437138160D9
:100E8000782F9D838C8349815A816B818D810E944B
:100E90005907C7CF0F900F900F900F900F90DF91D1
:100EA000CF911F910F91FF90EF90DF90CF90BF9067
:100EB0000895CF93DF93CDB7DEB72B970FB6F89495
:100EC000DEBF0FBECDBF4F83588769877A878B8778
:100ED0001E8285E0FE013796DE01119601900D928B
:100EE0008A95E1F749815A816B817C818D819E8150
:100EF0002B960FB6F894DEBF0FBECDBFDF91CF911A
:100F00000C94DA0D882309F4D8C0823871F40E9459
:100F1000600681FDD2C089E30E9484110E944E12B6
:100F200089E30E94C1110C944E12833859F40E9437
:100F3000600680FDC2C083E50E9484110E944E12AB
:100F400083E5EFCF843859F40E94600682FDB5C076
:100F500087E40E9484110E944E1287E4E2CF9CEF46
:100F6000980F913A18F40E948411DDCF90E2980F07
:100F7000983050F4877091E001C0990F8A95EAF794
:100F8000892F0E940512CFCF9BE5980F933070F404
:100F9000853A31F0863A39F083E890E00C94820685
:100FA00081E890E0FBCF82E890E0F8CF98E5980FD9
:100FB000953108F082C0883A09F440C0893A09F4B2
:100FC00040C08A3A09F440C08B3A09F440C08C3AD8
:100FD00009F440C08B3B09F440C08C3B09F440C08D
:100FE0008D3A09F440C0803B09F440C08E3A09F4C0
:100FF00040C08F3A09F440C0813B09F440C0823BB5
:1010000009F440C0833B09F440C0843B09F440C06C
:10101000853B09F440C0863B09F440C0873B09F496
:1010200040C0883B09F440C0893B09F440C08A3B7A
:1010300009F440C090E080E00C94980682EE90E0C5
:10104000FBCF89EE90E0F8CF8AEE90E0F5CF85EB0C
:1010500090E0F2CF86EB90E0EFCF83EB90E0ECCF27
:1010600084EB90E0E9CF87EB90E0E6CF8CEC90E06A
:10107000E3CF8DEC90E0E0CF83E891E0DDCF8AE82C
:1010800091E0DACF82E991E0D7CF84E991E0D4CF43
:1010900081E292E0D1CF83E292E0CECF84E292E08F
:1010A000CBCF85E292E0C8CF86E292E0C5CF87E25F
:1010B00092E0C2CF8AE292E0BFCF0895882309F47C
:1010C0004BC0823871F40E94600681FF45C089E3FD
:1010D0000E9484110E944E1289E30E94C1110C9457
:1010E0004E12833859F40E94600680FF35C083E5B4
:1010F0000E9484110E944E1283E5EFCF843859F488
:101100000E94600682FF28C087E40E9484110E942A
:101110004E1287E4E2CF9CEF980F913AF0F290E202
:10112000980F983050F4877091E001C0990F8A951C
:10113000EAF7892F0E940B12D2CF9BE5980F9330CC
:1011400020F490E080E00C948206885A853120F4E7
:1011500090E080E00C9498060895882321F00E9486
:1011600005120C944E120895882321F00E940B1250
:101170000C944E1208958F929F92AF92BF92DF927D
:10118000EF92FF920F931F93CF93DF9300D000D085
:101190000F92CDB7DEB77C016D837983FC010581A9
:1011A00002950F70128111110E9424120E947D116C
:1011B000D82E882371F01123A1F08D81805E8830B4
:1011C00080F082E00E9467110E947D1191E0D82E8C
:1011D000D926E981E295EF70F0E0E351F04E0C94EE
:1011E000891FD12CF6CF09810F70F981F07F11F0A2
:1011F0000295007F1123B1F0002361F08D81805EA4
:10120000883018F02D81211109C0802F0E9405120D
:101210000E944E128D810E94820715C0802F0E946D
:101220001612F6CF8D810E945E08002361F08D8139
:10123000805E883018F03D81311129C0802F0E94D6
:101240000B120E944E12DD2009F4D3C10E945A11E4
:1012500080FDCFC1F70112820E9454110E949C0FA1
:10126000C7010E940A0B0E9454110F900F900F901B
:101270000F900F90DF91CF911F910F91FF90EF9002
:10128000DF90BF90AF909F908F900C94BE0F802FF7
:101290000E941C12D6CF49814F70B42E5981507FC5
:1012A000503219F0B29480EFB8228D81882369F012
:1012B000813029F1112369F1002359F0F70185816B
:1012C00080FFA8CF8F70858304C0112361F00111C6
:1012D00004C08B2D0E94AD08B6CF8B2D0130D1F705
:1012E0000E943812B0CF011106C00E943B128B2D14
:1012F0000E94B408A8CF013009F4A5CFF6CF11237E
:1013000021F0063008F09FCFE4CF053008F09BCFE6
:10131000EECF002361F38D810E945E0894CF898116
:1013200086958695837069F0813009F08CCF8D8128
:1013300099819370111102C090E080E00E9498069C
:1013400082CF8D8199819370111102C090E080E06D
:101350000E94820678CF8D81112329F00E94B31557
:101360000E949A1670CF0E941B16FACF8981837053
:1013700009F05FC0111167CF2D8122952695277046
:10138000220F220F8D818F7090E0B0E0A0E04C0121
:101390005D01022E04C0880C991CAA1CBB1C0A9477
:1013A000D2F7FD8160E070E0CB01F4FF0FC06FE089
:1013B00070E080E090E004C0660F771F881F991FDF
:1013C0002A95D2F7609570958095909529812695FC
:1013D000269523702D832230B1F0233019F19B0123
:1013E000AC01282939294A295B2929833A834B836F
:1013F0005C833D8169817A818B819C813130B1F040
:101400000E94290F20CF9B01AC01282939294A29A4
:101410005B2929833A834B835C83CA01B9010E940B
:10142000530F11CF0E94290FC501B4010E94FF0E76
:101430000ACF8695112311F089818170882309F4E0
:1014400002CF2D81229526952770220F220F8D81A4
:101450008F7090E0B0E0A0E04C015D01022E04C06E
:10146000880C991CAA1CBB1C0A94D2F73D8160E031
:1014700070E0CB0134FF0FC06FE070E080E090E0DF
:1014800004C0660F771F881F991F2A95D2F76095B1
:1014900070958095909549814695469543704D830A
:1014A0004230B1F0433019F19B01AC0128293929B0
:1014B0004A295B2929833A834B835C833D81698177
:1014C0007A818B819C813130B1F00E942F10BBCE8C
:1014D0009B01AC01282939294A295B2929833A83B0
:1014E0004B835C83CA01B9010E945910ACCE0E94A3
:1014F0002F10C501B4010E940510A5CE3D81323FD9
:1015000009F447C080F4303F79F1313FD9F1832F9E
:10151000805E8031D0F0112309F456C001117ACEDB
:1015200089818F7133C04D81433FD1F1443F99F799
:10153000112309F43FC089818F7189830E949C0F18
:1015400063E089810E945E117ECE5D815F705D8364
:1015500089818F71112321F00E949C0F8D81BACE59
:101560000E94BE0F8D81C4CE112341F0053008F0DA
:101570006ACE89818F710E94E30F65CE063008F034
:1015800062CEF7CF89818F71112339F00E949C0FB1
:101590005ACE89818F711123C9F30E94BE0F53CE99
:1015A000112329F089818F710E94870F4CCE0E94F0
:1015B0007D0F49CE81E00E946711023008F443CECE
:1015C00082E00E9467113FCE0111A5CE89818F7103
:1015D000E4CF49814F706D81C7010E94D9010E94FB
:1015E000780E31CE49814F706D81C7010E94290369
:1015F0002ACE0F900F900F900F900F90DF91CF9108
:101600001F910F91FF90EF90DF90BF90AF909F9050
:101610008F9008950F931F93CF93DF93EC018B81ED
:101620009C81892B29F08881998189238F3F29F416
:10163000DF91CF911F910F910895CE010E94F20189
:101640008823B1F3688179818A810E942A118C01F3
:101650000E9483100E94F40EB801CE01DF91CF9159
:101660001F910F910C94BB080E9424120E94351206
:101670000E94F7110E944E120E948D170E949A1626
:1016800090E080E00E94820690E080E00C94980652
:101690000E9413120C94340B0E941E11282F892FC4
:1016A00082958F70903C80F48A30B0F4843020F4BE
:1016B000823090F480E008958630E1F781E0203EAA
:1016C00088F0213FB9F70EC08C3011F08F3091F7C0
:1016D00093FB882780F9089581E0203F39F018F4C2
:1016E000203E40F70895243F29F7FCCF0895CF937B
:1016F000DF9300D000D00F92CDB7DEB70F900F90E0
:101700000F900F900F90DF91CF910895CF93DF93BB
:1017100000D000D000D0CDB7DEB726960FB6F89433
:10172000DEBF0FBECDBFDF91CF910895CF93DF9382
:10173000C0915101809152018C1303C0DF91CF9170
:101740000895D0E0CE0166E070E00E94641FFC01C5
:10175000ED5AFE4F40815181628173818481958170
:101760000E94860B2196C770E5CF4091830150916E
:10177000840160918501709186018091870190912B
:1017800088010C94860BFF920F931F93CF93DF93E6
:1017900080918801807FB9F480918501882399F038
:1017A00020915101009152014091830110918401D7
:1017B000A0918601B0918701F42EF122ED01C09530
:1017C000D095021306C0DF91CF911F910F91FF902A
:1017D000089530E0109719F08FEFF81207C02F5FCF
:1017E0003F4F2770EECF8C0F9D1F18C0C90166E0D8
:1017F00070E00E94641FFC01ED5AFE4F818181134D
:10180000EECF80818413EBCF82818111E8CF838179
:1018100094818A179B0738F38A1B9B0B883C9105A0
:10182000F0F6809188018F70806180938801C901F2
:1018300066E070E00E94641FFC01E85AFE4F908150
:101840009F709061908383E891E00E940A0BDF9182
:10185000CF911F910F91FF900C94960B9F92AF9296
:10186000BF92CF92DF92EF92FF920F931F93CF938D
:10187000DF93CDB7DEB72B970FB6F894DEBF0FBE60
:10188000CDBF8C0185E0F801DE01179601900D9225
:101890008A95E1F7D8014C9111962C9111971296E7
:1018A000EC9012978091860190918701009709F43E
:1018B00070C13091830150918401652F63236F3F84
:1018C00009F467C11396CD90DC9090908501992022
:1018D00009F4FCC0C816D90608F43FC0F601E81B9D
:1018E000F90BCF01FF24F394883C910508F0F12C0B
:1018F00083E8A82E81E0B82E80918801982F907FF0
:10190000FF2009F4BAC0911183C0FE2C52132AC0E3
:10191000341328C0E11026C08F7080618093880145
:101920000E94B50BC5010E940A0B80918801D80165
:1019300015968C938F2D2B960FB6F894DEBF0FBEA5
:10194000CDBFDF91CF911F910F91FF90EF90DF906E
:10195000CF90BF90AF909F900895809590958C0DFB
:101960009D1DC0CFCD2829F0842F82238F3F09F001
:101970001EC180E0B82FB170DB2EE0915101309193
:10198000520180FD20C0EE20A9F280918801816083
:1019900080938801F12CCECFF0E0CF0166E070E0BB
:1019A0000E94641FDC01AD5ABE4F11968C911197B5
:1019B000821307C08C91841304C012968C918E11EF
:1019C000E2CF3196E770E313E7CF4F8328878F810B
:1019D00098850E941E11292F22952F70903260F059
:1019E000225F2F70223078F49F7051F0F8019581BA
:1019F000907F31F4D12C0AC09F7011F08823D1F36D
:101A0000805E8830B8F3C8010E940A0BFD2C92CF8B
:101A1000521306C0341304C0D801EE2009F47CC070
:101A20004F8328878F8198850E944C0B882309F467
:101A3000BAC0EE2009F4B7C080918801803270F0FE
:101A400020918301309184013A8329831B82DD82B6
:101A5000CC828E83CE0101960E940A0B86E0F801AB
:101A6000A3E8B1E001900D928A95E1F70E94C30BC3
:101A70000E94B50BFF24F3945DCF911114C07C2D0F
:101A8000DB86CA86522F6E2D8B850E94770B83E8EA
:101A900091E00E940A0B86E0F50111928A95E9F720
:101AA0000E94B50B47CF5213BBCF3413B9CFE1100F
:101AB000B7CFD80115968C93C8010E940A0B86E017
:101AC000F50111928A95E9F7F92C34CFC816D90699
:101AD00088F1B601681B790BCB01F12C883C91058C
:101AE00008F047C0FE2CEE2009F45DC0521330C050
:101AF00034132EC08091880180FD21C0982F907FE3
:101B0000F1F0D80115968C931597903F39F0982FE6
:101B1000907F905F8F70892B15968C93C8010E94DF
:101B20000A0B86E0F801A3E8B1E001900D928A95D6
:101B3000E1F7B6CF809590958C0D9D1DCECF86E0B8
:101B4000F801A3E8B1E001900D928A95E1F7F2CE99
:101B50004F8328878F8198850E944C0B81117ECFFF
:101B600080918801816080938801C8010E940A0BDE
:101B7000E1CE7C2DDB86CA86522F6E2D8B850E948E
:101B8000770B86E0E3E8F1E0DF011D928A95E9F743
:101B900087CFEE2041F04F8328878F8198850E9460
:101BA0004C0B81115BCFC8010E940A0B63CF81E00F
:101BB0008E25E0CECF93DF93CDB7DEB72C970FB64F
:101BC000F894DEBF0FBECDBF4F83588769877A87F1
:101BD0008B879C87CE0107960E942E0C8823D1F01C
:101BE0008A859B85892B39F04F815885842F8523E1
:101BF0008F3F09F076C08091510190915201891375
:101C000049C02C960FB6F894DEBF0FBECDBFDF9152
:101C1000CF91089586E0FE013796DE01119601907E
:101C20000D928A95E1F78A859B85892B21F388851A
:101C30009F8189238F3FF9F28091520190E09C01AE
:101C40002F5F3F4F277033274091510142171306F2
:101C500071F40E94480B109252011092510186E0DB
:101C6000E3E8F1E0DF011D928A95E9F7C4CF66E071
:101C700070E00E94641FDC01AD5ABE4F86E0FE0199
:101C8000319601900D928A95E1F7209352010E94BE
:101C9000960BB1CF90E066E070E00E94641F8D5A11
:101CA0009E4F0E942E0C882309F4ABCF80915101E6
:101CB00090E066E070E00E94641FFC01ED5AFE4F68
:101CC0004081518162817381848195810E94860B5C
:101CD0008091510190E0019687709927809351017E
:101CE0008ACF69857A858B859C850E94860B83CFF8
:101CF000EF92FF920F931F93CF93DF938C01892B69
:101D000089F0F12CEE24E394E8012196F801849106
:101D1000843709F457C0A0F4823009F43EC048F477
:101D20008130D1F0DF91CF911F910F91FF90EF9013
:101D300008959CEF980F9037A8F70E9482070AC079
:101D4000853709F44CC09CE7980F903758F78F7788
:101D50000E945E088E0116C00E5F1F4FFE01849127
:101D600090E2980F983060F48770FE2D01C0FF0F4D
:101D70008A95EAF78F2F0E9427120E944E1202C006
:101D80000E9482078F2D815008F4BECFEFE9FFE05B
:101D90003197F1F700C00000F6CF0E5F1F4FFE0134
:101DA000849190E2980F983050F48770FE2D01C016
:101DB000FF0F8A95EAF78F2F0E942D12DECF0E9427
:101DC0005E08E0CF0E5F1F4FFE01C491C150D0F2FC
:101DD0008FE99FE00197F1F700C00000F7CF0E5F99
:101DE0001F4FFE01F490CECF08956093920170933F
:101DF000930180939401909395010C94340BCF93AD
:101E0000DF9300D000D0CDB7DEB769837A838B83B0
:101E10009C838091920190919301A0919401B09143
:101E2000950129813A814B815C81822B932BA42BD4
:101E3000B52B8093920190939301A0939401B0935A
:101E400095010F900F900F900F90DF91CF910C9410
:101E5000340BCF93DF9300D000D0CDB7DEB76983CA
:101E60007A838B839C838091920190919301A091BE
:101E70009401B091950129813A814B815C81822343
:101E80009323A423B5238093920190939301A0936D
:101E90009401B09395010F900F900F900F90DF91E8
:101EA000CF910C94340BCF93DF9300D000D0CDB7FB
:101EB000DEB769837A838B839C83809192019091B2
:101EC0009301A0919401B091950129813A814B81B0
:101ED0005C8182279327A427B52780939201909352
:101EE0009301A0939401B09395010F900F900F90E0
:101EF0000F90DF91CF910C94340B10928E011092C1
:101F00008F0110929001109291010C94340B41E0DA
:101F100050E060E070E004C0440F551F661F771F5B
:101F20008A95D2F740938E0150938F016093900170
:101F3000709391010C94340B282F81E090E0A0E085
:101F4000B0E004C0880F991FAA1FBB1F2A95D2F7C3
:101F500040918E0150918F0160919001709191019B
:101F6000842B952BA62BB72B80938E0190938F01FA
:101F7000A0939001B09391010C94340B41E050E098
:101F800060E070E004C0440F551F661F771F8A95FC
:101F9000D2F7409550956095709580918E01909103
:101FA0008F01A0919001B091910184239523A623E4
:101FB000B72380938E0190938F01A0939001B093EB
:101FC00091010C94340B282F81E090E0A0E0B0E068
:101FD00004C0880F991FAA1FBB1F2A95D2F74091F2
:101FE0008E0150918F016091900170919101842731
:101FF0009527A627B72780938E0190938F01A093F2
:102000009001B09391010C94340BCF93DF9300D0E7
:1020100000D0CDB7DEB769837A838B839C838091B0
:102020008E0190918F01A0919001B0919101298131
:102030003A814B815C81822B932BA42BB52B80930F
:102040008E0190938F01A0939001B09391010F9016
:102050000F900F900F90DF91CF910C94340BCF9392
:10206000DF9300D000D0CDB7DEB769837A838B834E
:102070009C8380918E0190918F01A0919001B091ED
:10208000910129813A814B815C8182239323A4238E
:10209000B52380938E0190938F01A0939001B0930C
:1020A00091010F900F900F900F90DF91CF910C94B2
:1020B000340BCF93DF9300D000D0CDB7DEB7698368
:1020C0007A838B839C8380918E0190918F01A09164
:1020D0009001B091910129813A814B815C818227E5
:1020E0009327A427B52780938E0190938F01A09307
:1020F0009001B09391010F900F900F900F90DF918E
:10210000CF910C94340B0895262F990F990F890FB6
:10211000982F977041E001C0440F9A95EAF7869591
:102120008695869590E065E070E00E94641FFC0152
:10213000E757FE4F90E080E0622F70E05191DF01A1
:1021400011979B01082E02C0369527950A94E2F755
:10215000217021952527242325272C93019685304E
:10216000910561F70895990F990F890FA82FA7700E
:1021700086958695869590E065E070E00E94641FE4
:10218000FC01E757FE4F50E040E080E0219130E055
:102190000A2E02C0369527950A94E2F7217033275C
:1021A000042E01C0220F0A94EAF7822B4F5F5F4F83
:1021B0004530510559F70895BF92CF92DF92EF92C3
:1021C000FF920F931F93CF93DF938C01C0908E01EA
:1021D000D0908F01E0909001F09091018091920158
:1021E00090919301A0919401B0919501C82AD92AA8
:1021F000EA2AFB2ACFE1D0E0BC2ED701C6010C2E83
:1022000004C0B695A795979587950A94D2F780FD57
:102210000EC0219788F7B12C8B2DDF91CF911F91A4
:102220000F91FF90EF90DF90CF90BF900895B8018D
:102230008C2F0E944503019761F3EECFCF93DF937C
:10224000D82FC92F0E94DC106D2F7C2FDF91CF91EA
:102250000C9445031F93CF93DF93162FD72F9091A4
:102260005001992339F0862F972FDF91CF911F913D
:102270000C941E11882391F0862F972F0E94DC105A
:10228000C82F682F812F9D2F0E948410612F7D2FD2
:102290008C2FDF91CF911F910C944503862F972FA0
:1022A0000E94B310C82FF2CF809196018595859535
:1022B000859508958091960187700895982F990FBC
:1022C000990F990F962B909396010C949C0F9091D7
:1022D00096018095892380939601282F277061F4B9
:1022E000282F082E000C330B9217130629F0859522
:1022F000859585950C94BE0F0895909196019770E1
:1023000081E009F480E00895909112019923E1F0B1
:102310009091EC0197FF18C0E82FE695E695E695B9
:10232000EF3139F12091000130910101E20FF32FDB
:10233000F11D877021E030E001C0220F8A95EAF795
:102340008181822B818308952091000130910101C8
:10235000F90132969FEF40E05191851751F09F3F70
:1023600019F4511101C0942F4F5F4E31A9F79F3FCF
:1023700009F40895290F311D97FD3A95F9018283DB
:10238000089590911201992301F19091EC0197FF2A
:102390001CC0E82FE695E695E695EF3139F12091DE
:1023A000000130910101E20FF32FF11D877021E050
:1023B00030E0A90102C0440F551F8A95E2F7CA0117
:1023C0008095918189238183089520910001309126
:1023D0000101F9013296205E3F4F9191891303C0AC
:1023E000DF0111971C92E217F307B9F7089581E016
:1023F00090E0E0910001F0910101E80FF91F1082D7
:10240000019680329105A9F708959091BA01982B11
:102410009093BA010895982F90958091BA018923DD
:102420008093BA0108951092BA0108959091B9016C
:10243000982B9093B9010895982F90958091B901A8
:1024400089238093B90108951092B901089590915C
:10245000B801982B9093B8010895982F909580918A
:10246000B80189238093B80108951092B8010895A6
:10247000809397010895109297010895209100018B
:1024800030910101F9013196205E3F4F80E091913A
:1024900091118F5FE217F307D1F70895E0910001E2
:1024A000F09101018091BA018083E0910001F091E7
:1024B000010180819091B901892B8083E091000115
:1024C000F091010180819091B801892B80839091D6
:1024D0009701992361F0E0910001F0910101808161
:1024E000892B80830E943E12811110929701809166
:1024F0000001909101010C946C066DEE7EEF90E06E
:1025000080E00E94C31F60E082E090E00E94B11F63
:1025100060E083E090E00E94B11F60E084E090E022
:102520000E94B11F60E085E090E00C94B11F90E044
:1025300080E00E94AB1F9C0181E02D3E3E4F09F0E0
:1025400080E0089582E090E00C94A31F682F82E061
:1025500090E00C94B11F83E090E00C94A31F682FCF
:1025600083E090E00C94B11F84E090E00C94A31FF2
:10257000682F84E090E00C94B11F8091F2018430C8
:1025800039F11092BC0188E190E020E40FB6F89494
:10259000A895809360000FBE2093600080E00E94A9
:1025A000270383B7817F846083BF83B7816083BF44
:1025B0007894889583B78E7F83BF0FB6F894A895DB
:1025C00080916000886180936000109260000FBE6F
:1025D0000895089508950E94E9120E94B9050E9485
:1025E000EA1280E00E945406811109C081E00E9435
:1025F0005406982F81E0911103C080E0089581E096
:1026000008950E94480B0E9460060C9427031F92B5
:102610001FB61F9211248F939F93AF93BF93809106
:10262000BC01811113C08091E8019091E901A09152
:10263000EA01B091EB014196A11DB11D8093E80123
:102640009093E901A093EA01B093EB01BF91AF91A0
:102650009F918F911F901FBE1F90189582E084BD9F
:1026600093E095BD9AEF97BD80936E0008952FB7C4
:10267000F8948091E8019091E901A091EA01B0916C
:10268000EB012FBF0895CF92DF92EF92FF929C0152
:102690004FB7F8948091E8019091E901A091EA0187
:1026A000B091EB014FBF6C017D01EE24FF24A90125
:1026B00070E060E0C416D506E606F70638F0821B27
:1026C000930BFF90EF90DF90CF9008950197F7CF95
:1026D0001F921FB61F9211248F939F93AF93BF93A6
:1026E0008091E8019091E901A091EA01B091EB019C
:1026F0000196A11DB11D8093E8019093E901A0937B
:10270000EA01B093EB01BF91AF919F918F911F9020
:102710001FBE1F9018950E946E1BF8942FEF87EA3A
:1027200091E6215080409040E1F700C0000087E032
:1027300090EBDC018093FB019093FC01A093FD01E1
:10274000B093FE0188E19CE00FB6F894A8958093C1
:1027500060000FBE90936000FFCFCF92DF92EF92A8
:10276000FF921F93CF93DF9310E0E82EF12C812F7F
:102770000E945406D0E0C0E0C82ED12CC6010C2E19
:1027800002C0959587950A94E2F780FF13C06C2FDD
:10279000712F80E00E942A03E816F90659F481E0BF
:1027A000DF91CF911F91FF90EF90DF90CF90089530
:1027B00011E0DDCF2196C430D10501F71130C1F70A
:1027C00080E0EECFCF93C82F8CE20E94AD13882318
:1027D00021F08C2FCF910C94AD1380E0CF91089510
:1027E000CF93DF9300D000D0CDB7DEB70E94971211
:1027F000811102C00E947D1295E6998308C00E9453
:10280000B9058FE39CE90197F1F700C00000A981A9
:10281000A150A983A111F3CF89E20E94E213811193
:1028200010C18AE20E94E21381110E947D1285E0AC
:102830000E94E21381110E948B130E94A2128093C6
:10284000BB0187E00E94E213882371F08BE10E94B4
:10285000E213882309F4D1C09091BB01892F8D7FA9
:1028600091FF82608093BB018091BB010E94A61200
:102870000E94B41290E09093ED018093EC0180EE01
:102880000E94E213882341F09091EC01892F8E7F02
:1028900090FF81608093EC0189E30E94E21388231A
:1028A00041F09091EC01892F8D7F91FF82608093A0
:1028B000EC0182EE0E94E213882341F09091EC013A
:1028C000892F8B7F92FF84608093EC0186EE0E94BB
:1028D000E213882341F09091EC01892F877F93FFC9
:1028E00088608093EC0183EE0E94E213882341F01C
:1028F0009091EC01892F8F7E94FF80618093EC0191
:1029000085E30E94E213882341F09091EC01892F26
:102910008F7D95FF80628093EC0181E30E94E2133A
:10292000882341F09091EC01892F8F7B96FF806482
:102930008093EC0181E10E94E213882341F09091A1
:10294000EC01892F97FB87F980588093EC018091E7
:10295000EC010E94B81287E20E94E21389838EE1A3
:102960000E94E213882319F0B981B260B9838FE124
:102970000E94E213882319F029812460298380E2D0
:102980000E94E213882319F039813860398381E28B
:102990000E94E213882319F049814061498382E251
:1029A0000E94E213882319F059815062598383E20F
:1029B0000E94E213882319F089818064898384E26C
:1029C0000E94E2138823B1F19981906899838981EB
:1029D0000E94AF123981232F30E050E040E029837C
:1029E0003A834B835C83CA01B9010F900F900F901B
:1029F0000F90DF91CF910C94F50E8EE00E94E213C0
:102A0000882339F09091BB01892F8B7F92FF8460DE
:102A100029CF80E10E94E2139091BB01882329F025
:102A2000892F877F93FF88601DCF892F8E7F90FF2E
:102A3000816018CFA981A111CACF0E94AB12282FA3
:102A4000CBCF0F900F900F900F90DF91CF91089503
:102A50008091BF0180FF14C08091050190E065E086
:102A600070E00E94641FBC01759567957595679528
:102A700060387105C8F561157105C1F1862F08959B
:102A800081FF0BC08091050190E065E070E00E943D
:102A9000641FBC0175956795EBCF82FF09C08091DB
:102AA000050190E065E070E00E94641FBC01E0CF8A
:102AB0008091C0018823A9F0209104016091050153
:102AC00070E0821710F0CB01EDCF90E00E94641F00
:102AD00065E070E00E94641F622F70E00E94751F25
:102AE000C7CF65E070E0CACF8FE7089581E0089511
:102AF0008091BF0180FF0CC06091030170E075956B
:102B00006795759567956115710559F1862F08953B
:102B100081FF06C06091030170E075956795F3CF62
:102B20006091030170E082FD0CC06091C0016623DA
:102B3000A9F0209102018091030190E0621730F02A
:102B4000BC0160387105F8F28FE7089570E00E94CB
:102B5000641F622F70E00E94751FF3CF61E070E088
:102B6000D5CF81E00895803F31F40E9428158195EA
:102B70008093C3010895813F19F40E942815F8CF6E
:102B8000823F31F40E94281581958093C2010895F7
:102B9000833F19F40E942815F8CF893F29F40E9439
:102BA00078158093C40108958A3F21F40E94781516
:102BB0008195F7CF8B3F31F40E94781581958093F2
:102BC000C50108958C3F19F40E947815F8CF843F11
:102BD00031F48091C10181608093C1010895853FE6
:102BE00021F48091C1018260F7CF863F21F480916A
:102BF000C1018460F1CF873F21F48091C1018860D9
:102C0000EBCF883F21F48091C1018061E5CF8D3FFA
:102C100031F48091BF0181608093BF0108958E3FA0
:102C200021F48091BF018260F7CF8F3FB9F7809187
:102C3000BF018460F1CF9091C201803F41F4809147
:102C4000C30187FD1092C301992371F00895813F5C
:102C500029F48091C3011816ACF3F6CF823F81F4BA
:102C600097FFF2CF1092C2018091C3019091C401ED
:102C7000892B9091C501892B49F71092C0010895C5
:102C8000833F19F4191674F3DFCF893F39F480912B
:102C9000C4011816CCF61092C401D6CF8A3F29F48D
:102CA0008091C40187FFD0CFF6CF8B3F39F480915C
:102CB000C50187FFC9CF1092C501C6CF8C3F29F44B
:102CC0008091C5011816BCF3BFCF843F31F48091C9
:102CD000C1018E7F8093C101B7CF853F21F48091E0
:102CE000C1018D7FF7CF863F21F48091C1018B7F99
:102CF000F1CF873F21F48091C101877FEBCF883FDF
:102D000021F48091C1018F7EE5CF8D3F31F4809118
:102D1000BF018E7F8093BF0197CF8E3F21F48091BA
:102D2000BF018D7FF7CF8F3F09F08ECF8091BF011C
:102D30008B7FF0CF81EC91E00E9477060E943713E1
:102D40009093BE018093BD0108951F93CF93DF93AD
:102D500000D000D000D0CDB7DEB78091BD019091FA
:102D6000BE010E944313FC012091C0014091060165
:102D700050E0211108C08091070190E06AE070E006
:102D80000E94641FAC01E417F50788F09091C2011E
:102D90003091C30139831091C4014091C5014E8324
:102DA00091110FC0832F812B842B09F0B2C026967E
:102DB0000FB6F894DEBF0FBECDBFDF91CF911F914C
:102DC00008952F3F19F02F5F2093C001191624F4A6
:102DD0000E9428158093C2018091C20187FF05C01F
:102DE0000E94281581958093C2015981151624F4FB
:102DF0000E9428158093C3018091C30187FF05C0FD
:102E00000E94281581958093C3018091C201882377
:102E100009F455C09091C3019D83992309F44FC0D3
:102E2000282F880F330B440B550B29833A834B8390
:102E30005C83CA01B9010E94631E23E333E343E3C9
:102E40005FE369837A838B839C8369817A818B8139
:102E50009C810E94C71E69837A838B839C836981CE
:102E60007A818B819C810E942B1E6093C2018D818F
:102E7000082E000C990BAA0BBB0B89839A83AB839A
:102E8000BC83BC01CD010E94631E23E333E343E313
:102E90005FE369837A838B839C8369817A818B81E9
:102EA0009C810E94C71E69837A838B839C8369817E
:102EB0007A818B819C810E942B1E6093C301111625
:102EC00024F40E9478158093C4018091C40187FF87
:102ED00005C00E94781581958093C4019E811916C2
:102EE00024F40E9478158093C5018091C50187FF65
:102EF00005C00E94781581958093C50126960FB66E
:102F0000F894DEBF0FBECDBFDF91CF911F910C941F
:102F10009A162F3F09F057CF68CF85E0E1ECF1E03A
:102F2000DF011D928A95E9F71092C0011092BF014E
:102F300008958091E6010895CF93DF9300D00F921A
:102F4000CDB7DEB72091F201243019F523E02983B3
:102F50008A839B832093E9008FEF9091E800815052
:102F600095FD06C095ED9A95F1F700008111F5CF1A
:102F70008091E80085FF0DC050E040E063E070E024
:102F8000CE0101960E94E8198091E8008E77809327
:102F9000E8000F900F900F90DF91CF910895CF939D
:102FA000DF9300D00F92CDB7DEB79C018091F20184
:102FB000843031F582E08983205831093B832A83AC
:102FC00083E08093E9008FEF9091E800815095FDB8
:102FD00006C095ED9A95F1F700008111F5CF80912B
:102FE000E80085FF0DC050E040E063E070E0CE01F6
:102FF00001960E94E8198091E8008E778093E8009E
:103000000F900F900F90DF91CF9108952091F201D2
:103010002430F1F422E02093E9002FEF3091E80012
:10302000215035FD06C035ED3A95F1F7000021112C
:10303000F5CF2091E80025FF0BC050E040E065E0AF
:1030400070E00E94E8198091E8008E778093E80094
:103050000895CF93DF93D82FC92F8091F201843048
:10306000F1F4909112019923E9F09091EC0197FF0E
:1030700019C08093E9008FEF9091E800815095FD91
:1030800006C095E19A95F1F700008111F5CF809186
:10309000E80050E040E060E270E085FD1AC0DF919A
:1030A000CF91089581E08093E9008FEF9091E8003F
:1030B000815095FD06C095ED9A95F1F700008111BC
:1030C000F5CF8091E80085FFEACF50E040E068E06E
:1030D00070E08D2F9C2F0E94E8198091E8008E7778
:1030E0008093E80080E2ED2FFC2FA6ECB1E0019088
:1030F0000D928A95E1F7D3CF089508950C940113AA
:1031000042E061EC81E00E94EA1A42E061EC82E078
:103110000E94EA1A42E061EC83E00E94EA1A42E26D
:1031200061EC84E00C94EA1A8091F401893089F111
:1031300048F4823009F494C0833009F44FC08130E0
:1031400041F008958A3009F47BC08B3009F461C0E6
:1031500008958091F301813A09F03FC08091E80021
:10316000877F8093E8008091F7019091F801892B87
:1031700061F460E286EC91E070E00E94371A809181
:10318000E8008B778093E800089560E090E080E0AD
:10319000F3CF8091F301813201F58091F701909195
:1031A000F801009711F00397C1F48091E800877F40
:1031B0008093E8008091E80082FF0BC08091F100CD
:1031C0008093E6018091E8008B778093E8000C946F
:1031D0001E1B8091F2018111EDCF08958091F301C2
:1031E000813AD9F78091F7019091F801892BA9F7DD
:1031F0008091E800877F8093E8008091E80080FF5D
:10320000FCCF809112018093F1008091E8008E77CD
:10321000DCCF8091F301813201F78091F701909129
:10322000F801892BD1F68091E800877F8093E80030
:103230000E941E1B8091F501809312010C94480B93
:103240008091F301813249F68091E800877F809375
:10325000E8000E941E1B8091F6018093E70108950B
:103260008091F301813A09F0B8CF8091E800877F1F
:103270008093E8008091E80080FFFCCF8091E70117
:10328000C2CF84B7877F84BF0FB6F894A89580918A
:103290006000886180936000109260000FBE80E83B
:1032A00080936100109261000E94AF060E946E1B25
:1032B0000E94C11B8091E20084608093E2007894B8
:1032C0000E94101E0E94B10688E091E00E945B06F9
:1032D0008091F201853019F00E94B706F9CF0E9463
:1032E000BD128091F001882399F30E94EB1288238C
:1032F00079F30E94D219ECCF9C01DA01892F99272A
:1033000083309105C1F068F48130910509F445C01E
:10331000029761F48DE690E024EA31E02D933C932E
:10332000089581329105E1F0829739F190E080E0D3
:1033300030E020E0F3CFC9019927213059F08230E5
:10334000910559F0E0EAF1E0892B81F7849190E052
:103350009F01E4CFE8E8F1E0F9CFE4E7F1E0F6CF50
:10336000643020F7E62FF0E0EE0FFF1FEB5DFE4F1D
:103370002081318189E090E0D1CF6430B8F670E0EF
:10338000FB01EE0FFF1FE35EFE4F20813181675E80
:103390007E4FFB01808190E0C1CF82E190E021E18E
:1033A00032E0BCCF84E089BD86E089BD09B400FE6F
:1033B000FDCF8091D8008F7D8093D8008091E00070
:1033C00082608093E0008091E00081FDFCCF089551
:1033D000AF92BF92CF92DF92FF920F931F93CF9342
:1033E000DF936C01EB018A010E943D1BF82E8111D5
:1033F00023C00115110539F0F80180819181C81BA6
:10340000D90BC80ED91EB12CA12C2097A9F0809100
:10341000E80085FD22C08091E8008E778093E80067
:1034200001151105A1F0F80180819181A80EB91E46
:10343000B182A08285E0F82E8F2DDF91CF911F9170
:103440000F91FF90DF90CF90BF90AF9008950E94B2
:103450003D1B8823D1F2F82EEFCFF60181916F0149
:103460008093F1002197FFEFAF1ABF0ACECFFC0186
:10347000CB012091F9013091FA012617370790F01E
:10348000009729F42091E8002E772093E80040E08F
:10349000009751F4411108C08091E80082FF30C0CC
:1034A00080E00895C901F3CF2091F2012223A1F118
:1034B0002530A1F12091E80023FD2CC02091E800E7
:1034C00022FDEACF2091E80020FFE2CF2091F20018
:1034D00030E0009719F02830310558F041E02830ED
:1034E000310509F040E02091E8002E772093E800B4
:1034F000CFCF41914093F10001972F5F3F4FE9CF2C
:103500008091F201882341F0853041F08091E800FC
:1035100083FFC2CF81E0089582E0089583E008959B
:10352000FC01CB012091F9013091FA0126173707F0
:1035300090F0009729F42091E8002E772093E8007E
:1035400040E0009751F4411108C08091E80082FFEB
:1035500031C080E00895C901F3CF2091F201222308
:10356000A9F12530A9F12091E80023FD2DC020917B
:10357000E80022FDEACF2091E80020FFE2CF209171
:10358000F20030E0009719F02830310558F041E0A2
:103590002830310509F040E02091E8002E77209393
:1035A000E800CFCF44914093F100319601972F5F0F
:1035B0003F4FE8CF8091F201882341F0853041F000
:1035C0008091E80083FFC1CF81E0089582E00895F3
:1035D00083E00895982F953028F08F708093E9004C
:1035E00081E008959093E900242F762F50E09817FA
:1035F00031F07091EC002091ED005091F00021FD30
:1036000002C09F5FE8CF3091EB003E7F3093EB002C
:103610003091ED003D7F3093ED003091EB00316053
:103620003093EB007093EC002093ED005093F0008A
:103630002091EE0027FDE5CF80E008958091F30111
:1036400087FF13C08091E80082FF06C08091E800E8
:103650008B778093E80004C08091F2018111F2CF52
:1036600008958091F2018823D9F38091E80080FFCA
:10367000F8CF8091E8008E77ECCF2091E400309174
:10368000E50095E6A9012091EC00822F817020FFD2
:1036900006C08091E80080FF06C080E00895209178
:1036A000E80022FD1AC08091F201882389F085305C
:1036B00089F08091EB0085FD0FC02091E4003091EE
:1036C000E50042175307F9F29150E1F684E00895BE
:1036D00082E0089583E0089581E008950E94CB1B65
:1036E0000E94CE1BE0EEF0E0808181608083E8EDF7
:1036F000F0E080818F77808319BCE3E6F0E0808181
:10370000816080831092F10108950E94CB1B0E947A
:10371000CE1B8091D8008F778093D8008091D800FD
:1037200080688093D8008091D8008F7D8093D800E6
:1037300084E089BD86E089BD09B400FEFDCF10920A
:10374000F2011092EE011092F0011092EF0142E0AE
:1037500060E080E00E94EA1A8091E1008E7F809311
:10376000E1008091E20081608093E2008091E200BC
:1037700088608093E2008091E0008E7F8093E0007B
:103780000895E3E6F0E080818E7F808381E080937E
:10379000F1010C94851B1092E20008951092E10053
:1037A00008951F920F920FB60F9211242F933F93FB
:1037B0004F935F936F937F938F939F93AF93BF9339
:1037C000EF93FF938091E10082FF0BC08091E200B4
:1037D00082FF07C08091E1008B7F8093E1000E940F
:1037E0000F1E8091E10080FF19C08091E20080FFF0
:1037F00015C08091E2008E7F8093E2008091E2000C
:1038000080618093E2008091D80080628093D8002C
:1038100019BC85E08093F2010E947D188091E1003F
:1038200084FF29C08091E20084FF25C084E089BD27
:1038300086E089BD09B400FEFDCF8091D8008F7D60
:103840008093D8008091E1008F7E8093E100809189
:10385000E2008F7E8093E2008091E200816080939D
:10386000E2008091EE01882309F443C084E0809354
:10387000F2010E947E188091E10083FF29C08091AF
:10388000E20083FF25C08091E100877F8093E10003
:1038900082E08093F2011092EE018091E1008E7F30
:1038A0008093E1008091E2008E7F8093E20080911E
:1038B000E20080618093E20042E060E080E00E94EC
:1038C000EA1A8091F00088608093F0000E947C18D2
:1038D000FF91EF91BF91AF919F918F917F916F91E8
:1038E0005F914F913F912F910F900FBE0F901F90BE
:1038F00018958091E30087FD02C081E0B8CF83E096
:10390000B6CF1F920F920FB60F9211242F933F93B1
:103910004F935F936F937F938F939F93AF93BF93D7
:10392000CF93DF93EF93FF93D091E900DF70809105
:10393000EC00C82FC17080FDC0E81092E9008091B2
:10394000F000877F8093F00078940E94C51C10924D
:10395000E9008091F00088608093F000CD2BCF705B
:10396000C093E900FF91EF91DF91CF91BF91AF91AB
:103970009F918F917F916F915F914F913F912F9187
:103980000F900FBE0F901F9018951F93CF93DF934A
:10399000CDB7DEB7AA970FB6F894DEBF0FBECDBF86
:1039A00083EF91E0FC0101962091F100208321E05A
:1039B0008B3F9207B9F70E9494188091E80083FF2B
:1039C00016C18091F3019091F4019A3008F00FC173
:1039D000E92FF0E0E350F04E0C94891F803881F01D
:1039E000823809F004C18091F7018F708093E9005B
:1039F0008091EB0085FB882780F91092E90006C0D2
:103A00008091EF019091F001911182609091E80016
:103A1000977F9093E8008093F1001092F1008091DD
:103A2000E8008E77E0C0882309F4CEC0823009F028
:103A3000DEC08091F5018111D1C08091F7018F70B6
:103A400009F4D5C08093E9002091EB0020FFC6C0A7
:103A5000933031F48091EB0080628093EB00BEC024
:103A60009091EB0090619093EB0021E030E001C079
:103A7000220F8A95EAF72093EA001092EA008091DB
:103A8000EB008860EACF8111B2C01091F5011F7779
:103A90008091E3008078812B8093E3008091E8009F
:103AA000877F8093E8000E941E1B8091E80080FFC2
:103AB000FCCF8091E30080688093E30082E01111E5
:103AC00083E08093F20193C08058823008F08FC069
:103AD0008091F5019091F6018C3D23E09207A1F5CC
:103AE00083E08A838AE289834FB7F894DE011396D4
:103AF00020E03EE051E2E32FF0E050935700E491E4
:103B000020FF03C0E295EF703F5FEF708E2F90E0D3
:103B1000EA30C0F0C7968D939D932F5F243159F7FB
:103B20004FBF8091E800877F8093E8006AE270E0F1
:103B3000CE0101960E94371A8091E8008B7780931E
:103B4000E80055C0C096E7CFAE014F5F5F4F609170
:103B5000F7010E947C19BC01892B09F448C08091AF
:103B6000E800877F8093E80089819A810E94901AFB
:103B7000E3CF8038E1F58091E800877F8093E8000B
:103B80008091EE018093F1004ACF811130C0909175
:103B9000F501923060F58091E800877F8093E8001E
:103BA0009093EE010E941E1B8091EE01882311F07C
:103BB00084E005C08091E30087FDFACF81E0809327
:103BC000F2010E94801813C08091F501813079F4D0
:103BD00081E0933009F080E08093F0011092E900D9
:103BE0008091E800877F8093E8000E941E1B8091EF
:103BF000E80083FF0AC08091E800877F8093E80097
:103C00008091EB0080628093EB00AA960FB6F89447
:103C1000DEBF0FBECDBFDF91CF911F9108950895F4
:103C2000CF938091F2018823A1F0C091E900CF7079
:103C30009091EC00892F817090FD80E8C82B109244
:103C4000E9008091E80083FD0E94C51CCF70C093FD
:103C5000E900CF9108950E94321E6894B1110C942E
:103C6000C11E08950E94A61E88F09F5798F0B92F94
:103C70009927B751B0F0E1F0660F771F881F991FA1
:103C80001AF0BA95C9F714C0B13091F00E94C01E65
:103C9000B1E008950C94C01E672F782F8827B85F75
:103CA00039F0B93FCCF3869577956795B395D9F7F9
:103CB0003EF490958095709561957F4F8F4F9F4F03
:103CC0000895E89409C097FB3EF49095809570950F
:103CD00061957F4F8F4F9F4F9923A9F0F92F96E958
:103CE000BB279395F695879577956795B795F111CD
:103CF000F8CFFAF4BB0F11F460FF1BC06F5F7F4F6A
:103D00008F4F9F4F16C0882311F096E911C077237B
:103D100021F09EE8872F762F05C0662371F096E884
:103D2000862F70E060E02AF09A95660F771F881F53
:103D3000DAF7880F9695879597F9089557FD90586B
:103D4000440F551F59F05F3F71F04795880F97FB5F
:103D5000991F61F09F3F79F0879508951216130619
:103D60001406551FF2CF4695F1DF08C01616170648
:103D70001806991FF1CF869571056105089408957D
:103D8000E894BB2766277727CB0197F908950E940F
:103D9000D91E0C94531F0E94451F38F00E944C1FDF
:103DA00020F0952311F00C943C1F0C94421F0C94AE
:103DB000C11E0E949E1E78F39923C9F35523B9F3BF
:103DC000950F50E0551FAA27EE27FF27BB27002499
:103DD0000894679520F4E20FF31FB41F0A1E220F08
:103DE000331F441FAA1F6695A9F7779530F4F30F88
:103DF000B41F0A1E121E08F46395330F441FAA1F36
:103E0000221F769599F7879520F4B40F0A1E121E8B
:103E1000631F440FAA1F221F331F8695A9F7862F01
:103E2000712D602D11249F5750409AF0F1F0882396
:103E30004AF0EE0FFF1FBB1F661F771F881F9150B0
:103E40005040A9F79E3F510580F00C943C1F0C9404
:103E5000C11E5F3FE4F3983ED4F38695779567954E
:103E6000B795F795E7959F5FC1F7FE2B880F911DDA
:103E70009695879597F9089597F99F6780E870E080
:103E800060E008959FEF80EC089500240A941616D0
:103E9000170618060906089500240A941216130638
:103EA000140605060895092E0394000C11F48823C6
:103EB00052F0BB0F40F4BF2B11F460FF04C06F5FE2
:103EC0007F4F8F4F9F4F08950024552704C0080E41
:103ED000591F880F991F009729F076956795B8F3B9
:103EE0007105B9F7802D952F089597FB072E16F4CD
:103EF000009407D077FD09D00E948F1F07FC05D0E2
:103F00003EF4909581959F4F0895709561957F4FF0
:103F10000895EE0FFF1F0590F491E02D0994AA1B60
:103F2000BB1B51E107C0AA1FBB1FA617B70710F0A4
:103F3000A61BB70B881F991F5A95A9F780959095D6
:103F4000BC01CD010895F999FECF92BD81BDF89ACB
:103F5000992780B50895A8E1B0E042E050E00C94C4
:103F6000CB1F262FF999FECF92BD81BDF89A0197FC
:103F700000B4021639F01FBA20BD0FB6F894FA9AB1
:103F8000F99A0FBE08950196272F0E94B21F0C9434
:103F9000B11FDC01CB01FC01F999FECF06C0F2BDD7
:103FA000E1BDF89A319600B40D9241505040B8F7F7
:103FB0000895F894FFCF92029E02A202A602AA02DE
:103FC000AE02B202B602BA02BE02C202C602CA0201
:103FD000CE02D202D602DA02DE02F308F3084B095F
:103FE0004B098F09AB0923092309B60923097E0A66
:103FF0007E0AE90A23092309F20AEE1C131DF71DA4
:0E400000131DF71D431D641DF71DB91DC51DC1
:10400E0098012808140A321E991729180618CF1776
:10401E009C1701309695943193404D3639DF0292BC
:0E402E00025C022302B601CF01E8010102008C
:00000001FF
